:020000040001F9
:10000000F8FF022011040100DD150100DD150100DB
:10001000DD150100DD150100DD150100DD15010014
:10002000DD150100DD150100DD150100DD15010004
:10003000DD150100DD150100DD150100DD150100F4
:10004000DD150100DD150100DD150100DD150100E4
:10040000FFFFFFFFFFFFFFFFFFFFFFFFFEFFFFFFFD
:1004100062B601F02FFFFEE72DE9F84FDFF82C451B
:1004200000202060DFF82855002028600020DFF839
:1004300048150860DFF81C6500203060DFF818758B
:1004400000203860DFF814850020C8F80000DFF8CD
:100450001095DFF81005D9F8001001600020C9F8E8
:100460000000DFF804A50020CAF800004520206045
:1004700020683228C0F2178150202860286851284F
:100480002ADA2868002827D4A021DFF8F824236876
:10049000286801FB030302EB030010F8A10CFF28FE
:1004A00010D12368286801FB030102EB010010F85A
:1004B000A20C002806D12868DFF8B414226821F8BD
:1004C000120009E00020DFF8A814226821F81200C9
:1004D0002868401E2860D1E75020286028685028EE
:1004E0002ADB2868A02827DAA021DFF898242368CF
:1004F000286801FB030302EB030010F8A10CFF289E
:1005000010D12368286801FB030102EB010010F8F9
:10051000A00C002806D12868DFF85814226821F8BA
:10052000120009E09F20DFF84C14226821F8120025
:100530002868401C2860D1E72068452800F08580A5
:10054000DFF82C14206831F81000002823D1DFF8E0
:100550002404226830F812209F2A1CD1226801EB63
:1005600042025288236821F81320226800EB4202DD
:100570005288236820F81320226830F8120022687D
:1005800031F812201018022290FBF2F0DFF8DC2381
:10059000236822F81300206831F8100000281BD1CE
:1005A000DFF8D023206832F810009F2814D0DFF83D
:1005B000BC33206803EB4000B0F802C0206802EBB7
:1005C00040004088BCEB000C206832F8100010EBB3
:1005D0000C0C206823F810C0206831F810000028A7
:1005E00018D0DFF89003226830F812009F2811D14C
:1005F000DFF87823206802EB40004388206801EB95
:10060000400040881B1A206831F81000C318206889
:1006100022F81030206831F81000002815D0DFF8DB
:100620005403226830F812209F2A0ED0226830F836
:100630001200226831F812100818022190FBF1F024
:10064000DFF82813226821F81200DFF82013DFF802
:100650002403B0F88A00DFF81823B2F88A201018B3
:10066000022290FBF2F0A1F88A00DFF81823236839
:100670005FF0A00C206831F810000CFB030302EBC4
:100680000300002200F8A12C206831F81000D0F1FE
:10069000500000EE100AB8EEC00A86ED000A20688D
:1006A000401E2060E4E6312020602068002800F130
:1006B0002681DFF8B8B220680BEB40004088286044
:1006C0002868002827D4A021DFF8B82223682868EA
:1006D00001FB030302EB030010F8A10CFF2810D16B
:1006E0002368286801FB030102EB010010F8A20C4B
:1006F000002806D12868DFF87812226821F8120055
:1007000009E00020DFF86812226821F8120028684A
:10071000401E2860D4E720680BEB4000408828602A
:100720002868A02827DAA021DFF858222368286843
:1007300001FB030302EB030010F8A10CFF2810D10A
:100740002368286801FB030102EB010010F8A00CEC
:10075000002806D12868DFF81C12226821F8120050
:1007600009E09F20DFF80C12226821F812002868A7
:10077000401C2860D4E7DFF8F811206831F8100039
:10078000002826D1DFF8EC01226830F812209F2AD9
:100790001FD1226801EB42025288236821F81320FE
:1007A000226800EB42025288236820F81320226856
:1007B00030F81200226831F812201018022290FB43
:1007C000F2F022682BF81200DFF8AC010268521C2C
:1007D0000260206831F81000002815D1654A2068B1
:1007E00032F810009F280FD020680BEB40004388A0
:1007F000206802EB400040881B1A206832F8100085
:10080000C31820682BF81030206831F81000002839
:1008100015D05848226830F812009F280FD1206860
:100820000BEB40004288206801EB40004088121A20
:10083000206831F81000821820682BF810202068FA
:1008400031F81000002812D04A48226830F81220EF
:100850009F2A0CD0226830F81200226831F812105A
:100860000818022190FBF1F021682BF8110000F02C
:1008700050F820683BF8101020680BEB40004088CF
:10088000091ACAF80010DAF8000000F07FF806280C
:1008900006DB20680BEB4000408821682BF8110034
:1008A00038492268A02320683BF8100003FB0202AD
:1008B00001EB0200002100F8A11C20683BF81000A9
:1008C000D0F1500000EE100AB8EEC00A86ED000A22
:1008D00020681E280FDB98ED000AD6ED000A30EEE6
:1008E000200A88ED000A97ED000AF7EE000A30EEC4
:1008F000200A87ED000A2068401E2060D5E698EDAA
:10090000000AD7ED000A80EE200A89ED000ABDE852
:10091000F18F704780B52DED028B9FED188A10483E
:1009200090ED000A28EE000A10EE100A00F032F8EE
:1009300002000B000020124900F050F800F0DCF833
:1009400011490860BDEC028B01BD0000A806FF1F25
:10095000AC06FF1F9006FF1F9406FF1F9806FF1F9F
:100960009C06FF1FA006FF1FA406FF1F0406FF1F13
:10097000EC04FF1F7805FF1FB006FF1FCDCC4C3ED7
:10098000004048407419FF1F2004FF1F002848BF83
:1009900040427047C0F3C75181B1FF2906D0C11052
:1009A000400721F0E04101F16051704741020CBF66
:1009B00040F4E0016FF000410020704700F000417A
:1009C00000020AD0B0FA80FC00FA0CF001F160518C
:1009D000A1EB0C5101EBD0214005704770B44FF0F2
:1009E000004591EA030F40F1C3806B40841A71EB1C
:1009F000030603D2001BB141121973414FF4001CCE
:100A00001CEB410F34BF7CEB430442E00C0DA4EB24
:100A10001356352E4FDC45EAC323DB0A45EAC121D4
:100A2000C912B6F120050DDD63FA05F6EB4086EA42
:100A30000305124218BF45F00105C01851F100012D
:100A40000CD213E062FA06F5F2405540F3415A40E9
:100A5000B340F3405A408018594107D349085FEA30
:100A600030005FEA350528BF45F0010501F580112A
:100A7000420875F1004250F1000041EB04514E0074
:100A800016F5001F70BC38BF70470020090D09051E
:100A900070471CEB410F10D252EA43060BD0BCEB5F
:100AA000410F05D80C0DAB43661E342EB6DD02E0B7
:100AB000AB438018594170BC704770BC704730B46C
:100AC000002513E050F8042BD30744BFA9F101031C
:100AD0009A18091F042942F8045BFAD213468C07BE
:100AE00044BF15809B1CC90748BF1D7050F8041BEC
:100AF0000029E7D130BC704701F000428B1AA3F106
:100B00006051B1F5801F0ADBB1F17F6F1FD242EA5D
:100B1000C102C10071F1004142EB507070470B15EA
:100B2000C3F10903212B10D2890241EA90518002BE
:100B30000128494141F0004121FA03F0C3F12003AB
:100B4000994071F1004150417047100070476FF0BB
:100B5000000013EB103F5CBF000E42EAC05070472C
:100B600070B44FF0004591EA030F7FF53FAF6B4043
:100B7000841A71EB030604D26E40001BB1411219B6
:100B800073414FF4001C1CEB410F34BF7CEB430658
:100B900083E00C0DA4EB1356362E00F37C80012E5F
:100BA00045EAC32341DC43EA525312BFD202920208
:100BB0005B08240545EAC12141EA5051D2EBC0202F
:100BC000994125D407D1B0FA80F610FA06F162D027
:100BD0000020203608E0B1FA81F6B140C6F12002CB
:100BE00020FA02F21143B0404FEAF474B4EB4654D9
:100BF00034F001064FEA74040AD8D6F50016760DD3
:100C000004F00044F04061FA06F25040F1404840E0
:100C1000C00A40EA415021F0004128BF5FEA500578
:100C200050F1000044EBD12135E0DB0A45EAC12157
:100C3000C90AB6F120050EDD42EA0242120CC5F1E6
:100C4000200603FA06F6EB4042EA06056D4298419B
:100C500061F100010DE062FA06F5F240554063FAD9
:100C600006FC82EA0C02F3405A406D42904161EB6F
:100C7000030111F4801F05D1641E620502D06D00CE
:100C80004041494121F48011430875F1004350F17E
:100C9000000041EB045170BC70471CEB410F15D2B2
:100CA00023F0004352EA43060BD04FEA4C0CBCEB56
:100CB000410F04D80C0D661E342EB7DDEBE7801A09
:100CC000994150EA410608BF0021E4E708BF1CEB48
:100CD000430F28BF6FF00001DDE701FE80B525203E
:100CE00000F086FA262000F083FA242000F080FA33
:100CF000272000F07DFA01BD10B5DFF89444DFF83D
:100D000094042168016000F0F2F8DFF88C04018897
:100D1000DFF888040088091A00EE101AB8EEC00A3D
:100D200084ED000A00F0C0FB00F00AFC10BD2DE9C4
:100D3000F0410024200080B2322811DADFF8746418
:100D40000021252000F047FB308030884519DFF86E
:100D50006804016805204DF6C5229047641CE9E748
:100D6000280080B2322190FBF1F0DFF850140860C7
:100D700000260027380080B2322811DADFF840441C
:100D80000021262000F027FB208020888619DFF82C
:100D90002804016805204DF6C52290477F1CE9E72D
:100DA000300080B2322190FBF1F0DFF818140860B7
:100DB00000240025280080B2322811DADFF8086408
:100DC0000021242000F007FB308030880419DFF870
:100DD000E803016805204DF6C52290476D1CE9E740
:100DE000200080B2322190FBF1F0DFF8E0130860C0
:100DF00000260027380080B2322811DADFF8D0430D
:100E00000021272000F0E7FA208020888619DFF8EB
:100E1000A803016805204DF6C52290477F1CE9E72D
:100E2000300080B2322190FBF1F0DFF8A8130860A7
:100E300000240025280080B240F2DC51884251DABB
:100E4000DC4E0021252000F0C6FA3080DFF8880350
:100E500031880268914201DB318801604DF6C52678
:100E6000D54F39680120B047DFF854830021262090
:100E700000F0B1FAA8F80000D848B8F800100268ED
:100E8000914202DBB8F80010016039680120B047D8
:100E9000DFF834830021242000F09DFAA8F8000038
:100EA000CF48B8F800100268914202DBB8F8001091
:100EB000016039680120B047DFF814830021272042
:100EC00000F089FAA8F80000C648B8F800100268D7
:100ED000914202DBB8F80010016039680120B04788
:100EE0006D1CA7E70020B1490870BDE8F0812DE92D
:100EF000F84F00240025002600275FF00008404638
:100F000080B233282CDA0021252000F064FAA949A8
:100F10000880DFF8AC920021262000F05CFAA9F8E6
:100F20000000DFF8A4A20021242000F054FAAAF85F
:100F30000000DFF89CB20021272000F04CFAABF84B
:100F400000009C4800880419B9F800004519BAF857
:100F500000008619BBF80000C71918F10108CEE798
:100F60009448210089B2322291FBF2F10180944928
:100F70002A0092B2322392FBF3F20A80924A3300A3
:100F80009BB25FF0320C93FBFCF31380904BBC469A
:100F90001FFA8CFC5FF0320E9CFBFEFCA3F800C035
:100FA000B0F800C0DFF830E2DEF800E0F44505DB21
:100FB000DFF824C2DCF800C0A0F800C0B1F800C01F
:100FC000DFF818E2DEF800E0F44505DBDFF80CC2DC
:100FD000DCF800C0A1F800C0B2F800C0DFF800E201
:100FE000DEF800E0F44505DBDFF8F4C1DCF800C012
:100FF000A2F800C0B3F800C0DFF8E8E1DEF800E0D6
:10100000F44505DBDFF8DCC1DCF800C0A3F800C064
:10101000B0F800C0DFF8A4E1DEF800E0F44505DA3E
:10102000B0F800C0DFF894E1CEF800C0DFF894C15A
:10103000B1F800E0DCF80090CE4503DAB1F800E04A
:10104000CCF800E0DFF884E1B2F80090DEF800A010
:10105000D14503DAB2F80090CEF80090DFF8749131
:10106000B3F800A0D9F800B0DA4503DAB3F800A06D
:10107000C9F800A05FF0640A0088DFF840B1DBF82F
:1010800000B0B0EB0B000AFB00F000905248006883
:10109000DFF828B1DBF800B0B0EB0B0B009890FB49
:1010A000FBF0DFF8F8B0ABF800000988DCF80000CE
:1010B000091A0AFB01F14948D0F800B0DCF8000039
:1010C000BBEB000B91FBFBF0334908801188DEF885
:1010D0000000091A0AFB01F141480268DEF800002D
:1010E000121A91FBF2F02E4908801988D9F80000F5
:1010F000091A0AFB01FA3B480168D9F80000091AED
:101100009AFBF1F027490880BDE8F18F000000004C
:1011100070B52DED028B9FED1B8ADFED1B8A2248F7
:101120000078012803D022480078012803D19FEDE0
:10113000170AB0EE408A164E96ED000A28EE000A15
:1011400010EE100AFFF726FC0022274BFFF708FDE0
:1011500004000D0096ED000A0E48D0ED000A30EEB6
:10116000600A20EE280A10EE100AFFF713FC220096
:101170002B00FFF7F5FCFFF7BFFC1C490860BDEC36
:10118000028B70BD9A99193E3333333F0AD7A33D82
:10119000D404FF1FD804FF1F8AAFFF1F86AFFF1FB5
:1011A0008EAFFF1F92AFFF1F94AFFF1F96AFFF1FC1
:1011B00095AFFF1F84AFFF1F74AFFF1F1004FF1F09
:1011C00088AFFF1F1404FF1F8CAFFF1F1804FF1F01
:1011D00090AFFF1F1C04FF1FDC04FF1FE004FF1F74
:1011E000E404FF1FE804FF1F004048402004FF1FE5
:1011F00038B5040025006DB26D112800C0B200287A
:1012000002D001280DD019E09A48016851F0006120
:1012100001609948016831F0900101600168016046
:1012200010E09648016851F0006101609248016841
:1012300031F4104101600168016003E033219048FE
:1012400000F0ACF9200040B203287BD0082847D03A
:1012500009284AD00A284DD00B2850D00C2853D04A
:101260000D2856D00E2859D00F285CD0102869D0F0
:1012700011285DD0122860D0132863D01A2861D0BD
:101280001D285FD01E285DD020285CD023285AD08E
:10129000242859D025285CD026285FD0272862D062
:1012A000282865D0292868D02A286BD02B286ED012
:1012B0002C2871D02D2874D02E2877D02F287AD0C2
:1012C000302800F0828031287AD032287DD033282F
:1012D0007BD03A2879D03D2877D03E2875D075E06C
:1012E0000021202000F0A0F974E00021212000F06E
:1012F0009BF96FE00021072000F096F96AE00021D9
:10130000082000F091F965E00021222000F08CF91E
:1013100060E00021232000F087F95BE000214020FD
:1013200000F082F956E00021412000F07DF951E003
:101330000021982000F078F94CE00021992000F07D
:1013400073F947E046E045E00021802000F06CF9A9
:1013500040E00021812000F067F93BE0002182207D
:1013600000F062F936E00021832000F05DF931E001
:101370000021202000F058F92CE00021212000F06D
:1013800053F927E00021242000F04EF922E000214B
:10139000252000F049F91DE00021262000F044F945
:1013A00018E00021272000F03FF913E000212A2057
:1013B00000F03AF90EE000212B2000F035F909E0A9
:1013C0000021112000F030F904E003E096212C48C0
:1013D00000F0E4F831BDF8B504000D00260076B247
:1013E00076110027290049B2200040B200F01BF816
:1013F0002449300040B251F8200000680006F7D5BB
:10140000300040B251F820000069320052B251F869
:101410002220126832F0800233005BB251F82310B0
:101420000A6080B2F2BD70B4020052B2521110F0E4
:101430001F03144C0D006DB2AD0015F00C0555F0F6
:101440005005160076B254F82660B56004251600E3
:1014500076B254F82660F5601D00EDB215F01F0558
:1014600055F04005160076B254F82640256070BC51
:10147000704700003C8004401880044030800440E5
:10148000B82601002404FF1F1CB520480068009006
:1014900008239FED1B0A4FF49672002101204BF2A6
:1014A0009714A04713BD000080B5194800780128A3
:1014B00001D1FFF72FFA17480078012801D1FFF773
:1014C00027FE9FED100A1448D0ED000AF4EE400A02
:1014D000F1EE10FA01DB80ED000A90ED000ADFED7D
:1014E0000A0AB4EE600AF1EE10FA01D50B49016068
:1014F00090ED000A002101204BF2BD32904701BD62
:101500000000424200006442010018427CAFFF1F0D
:1015100097AFFF1FD004FF1F2004FF1F00001842D9
:101520001CB50D48006800904123B3EE040A41F653
:101530005832002100204BF29714A04713BD000041
:1015400080B59FED040A002100204BF2BD32904788
:1015500001BD00000000B6427CAFFF1F82B00190C9
:1015600001994A1E0192002908D04FF48051009140
:1015700000994A1E00920029FAD1F1E702B07047A3
:101580001CB5040000940098411E0091002804D06E
:101590004FF47A70FFF7E2FFF5E713BD70B5040072
:1015A0000D00002000F09CF82B0022001A490FF2D9
:1015B00019004DF61516B047002000F0B1F84FF4B1
:1015C0007A70FFF7DDFFEFE710B50400210049B2A4
:1015D000002000F0ADF964B2200010BD78B599B0DC
:1015E0000E480468684649F6C5718847012000F036
:1015F00077F8012000F094F84DF61515084E2200FA
:10160000D2B208493000A84769463000A8474FF4D5
:101610007A70FFF7B5FFECE70828010004ED00E061
:10162000C91501004C29010030B42B4B1C684FF444
:1016300000750200D2B2520995402C431C60274B22
:101640000200D2B2521153F82240012510F01F02BD
:101650009540C4F8A0500200D2B2521153F8222093
:101660000300DBB213F01F0342F8231030BC7047B5
:1016700030B4194B1C684FF400750200D2B2520905
:1016800095402C431C60154B0200D2B2521153F806
:101690002240012510F01F029540C4F8A05031F4FB
:1016A000E0610200D2B2521153F822200400E4B2E9
:1016B00014F01F0452F8242012F4E06211430200D7
:1016C000D2B2521153F822200300DBB213F01F03F1
:1016D00042F8231030BC7047388004404004FF1F9C
:1016E00010B50400200040B2042808DA01220121CC
:1016F0001A4823005BB2C05C00F048F90FE00420F8
:1017000004002000441E40B2002808D0012201211C
:10171000124823005BB2C05C00F038F9F1E710BD5D
:1017200010B50400200040B2042806DA0B4821005E
:1017300049B2405C00F085F90DE00420040020006F
:10174000441E40B2002806D00448210049B2405C43
:1017500000F077F9F3E710BD000000006804FF1FF8
:101760002DE9F84304000D00200040B2002806D007
:10177000022826D014D3042845D033D354E0DFF810
:10178000F401016851F4806101604FF4007101209F
:10179000FFF74AFF4FF400710220FFF745FF43E0D7
:1017A000DFF8D001016851F4006101604FF440712D
:1017B0004320FFF739FF4FF440714420FFF734FF17
:1017C00032E0DFF8B001016851F4805101604FF45C
:1017D00040716320FFF728FF4FF440716220FFF74C
:1017E00023FF21E0DFF88C01016851F40051016012
:1017F0004FF440715020FFF717FF4FF44071512014
:10180000FFF712FF10E0DFF87001016851F480610A
:1018100001604FF440714E20FFF706FF4FF4407116
:101820004F20FFF701FFFFE7DFF85061200040B2D3
:1018300056F82000C07810F0F300210049B256F8A5
:101840002110C870200040B256F820008078210096
:1018500049B256F821108870200040B2002803D009
:10186000200040B2012806D1DFF8140107684FF4C8
:101870007A70474305E0DFF80C0107684FF47A708F
:1018800047432801B7FBF0F8404680B2B0F5005F4F
:1018900002DB41F6FF708046B7FBF5F9404680B2A7
:1018A000B9EB0019484680B2202803DBC72136482F
:1018B000FFF774FE200040B256F82000007810F0C8
:1018C000E000C8F304210143220052B256F822205E
:1018D0001170210049B256F8211081F801802100D1
:1018E00049B256F82110897A11F0E00119F01F026F
:1018F0000A4323005BB256F823309A72220052B298
:1019000056F82220127C52F0880223005BB256F86F
:1019100023301A74220052B256F82220D27852F0A4
:101920000C0223005BB256F82330DA70BDE8F18375
:10193000124A03005BB252F823301B791B06F7D51D
:1019400003005BB252F82320D171704770B50400D8
:101950000D0016003000461E002809D095F9000041
:10196000010049B2200040B2FFF7E2FF6D1CF1E731
:1019700070BD000034800440288004405404FF1FE0
:1019800074AFFF1F7CAFFF1F6C270100F8B5040088
:101990000D0016004FF480712000C0B2FFF744FE26
:1019A000280040B2002812D134482100C9B24911A0
:1019B00050F821102200D2B2521150F82200426990
:1019C000012314F01F0083409A434A6138E001214B
:1019D0002A4A2000C0B2401152F820002300DBB296
:1019E0005B1152F823305B6914F01F0711FA07F7F7
:1019F0003B4343613000C0B2002811D12000C0B287
:101A0000401152F82000036814F01F00814033EAAF
:101A100001012000C0B2401152F8200001600FE027
:101A20002000C0B2401152F82000036814F01F00DB
:101A3000814019432000C0B2401152F820000160DB
:101A4000F1BD38B504000D4D2000C0B2401155F86D
:101A50002000406914F01F01C840C00703D47B2157
:101A60000748FFF79BFD2000C0B2401155F8201039
:101A7000012214F01F008240CA6031BD2C04FF1FF8
:101A80003027010001B4BDF80000002805D0BDF8E2
:101A90000000401EADF80000F5E701B0704780B5CA
:101AA000012201211A20FFF771FF012201211920D3
:101AB000FFF76CFF23211A20FFF7DAFD23211920FD
:101AC000FFF7D6FD01BDF8B5704C01202060704EC7
:101AD000012030604FF4C870FFF7D4FF6D4D002037
:101AE00028606D4F3868002803D10120286000204D
:101AF00011E001202860002020604FF4C870FFF73B
:101B0000C1FF002030603868002803D00120286021
:101B1000002000E00120F2BD38B55D4C00202060BF
:101B20005A4D002028604FF4C870FFF7ABFF01202A
:101B300020604FF4C870FFF7A5FF012028604FF424
:101B4000C870FFF79FFF31BD10B5514C00202060D9
:101B50004FF4C870FFF796FF00204C4908604FF41F
:101B6000C870FFF78FFF012020604FF4C870FFF7A7
:101B700089FF002020604FF4C870FFF783FF10BD7D
:101B800010B5434C002020604FF4C870FFF77AFF77
:101B900001203E4908604FF4C870FFF773FF012031
:101BA00020604FF4C870FFF76DFF002020604FF4F5
:101BB000C870FFF767FF10BD38B5354C00202060B6
:101BC000344D002028604FF4C870FFF75BFF012000
:101BD00020604FF4C870FFF755FF2F4800680028B9
:101BE00005D00120286000202060002004E00120B2
:101BF000286000202060012032BD70B50400082557
:101C00002800451EC0B2002817D0200603D50120A9
:101C10001E49086002E000201C49086064004FF47F
:101C2000C870FFF72FFF1A4E012030604FF4C870C4
:101C3000FFF728FF00203060E2E770BDF8B5082507
:101C40000026144C002020602800451EC0B2002849
:101C500014D076000E4F002038604FF4C870FFF7A4
:101C600011FF012038604FF4C870FFF70BFF0A48DE
:101C700000680028E8D056F00106E5E70120206062
:101C8000002003490860F6B23000F2BD6400FE4354
:101C90006800FE43E402FE436402FE4370B50400A4
:101CA0000D0000262900C9B2200080B200F00BF818
:101CB000002806D1761C3000C0B21428F2D10020D2
:101CC00000E0012070BD38B504000D00FFF7FBFEF9
:101CD000002801D1002019E04220FFF78EFFFFF716
:101CE0006BFF002803D1FFF717FF00200EE0200054
:101CF000C0B2FFF782FFFFF75FFF2800C0B2FFF717
:101D00007CFFFFF759FFFFF707FF012032BDF8B551
:101D100004000D00160000273200D2B2290089B25B
:101D2000200000F00BF8002806D17F1C3800C0B25C
:101D30001E28F1D1002000E00120F2BD70B50400A2
:101D40000D001600FFF7BFFE002801D1002039E08A
:101D50004220FFF752FFFFF72FFF002803D1FFF7C4
:101D6000DBFE00202EE03000C0B2FFF746FFFFF799
:101D700023FFFFF7D1FEFFF7A6FE002801D10020C8
:101D800020E04320FFF739FFFFF716FF002803D1BB
:101D9000FFF7C2FE002015E0280080B200280ED018
:101DA000FFF74CFF2070280080B2012802D1FFF716
:101DB000E7FE01E0FFF7C8FE641C6D1EECE7FFF7CD
:101DC000ABFE012070BDFE01012210F01F018A4010
:101DD0007F4903005BB25B0941F823207047012271
:101DE00010F01F018A407B4903005BB25B0941F898
:101DF0002320704710B504007748046000F072F8A3
:101E00000028FBD000F002F8002010BDE0B5012052
:101E100002904FF496500190002000901B236E48D2
:101E200002686E49002000F02FF96D4801684908EA
:101E3000490001603B20FFF7D2FF6A48016851F07A
:101E4000010101600020FFF7BFFF67491B20FFF77A
:101E5000EBFB66491D20FFF7E7FB07BD10B5644C9F
:101E600094F90000042813D1032020703B20FFF7D1
:101E7000B6FF60485FF000610160594A136853F093
:101E8000010313600160544800685B49086004E086
:101E90003B20FFF7A4FF0220207010BD0120544911
:101EA00008705048016851F001010160704770B539
:101EB0004F4C042020704F4D5FF0FF362E603B20CA
:101EC000FFF782FF94F9000001280AD094F900007E
:101ED0000228F7D1042020702E603B20FFF774FF0A
:101EE000F0E770BD2DE9FC41002400208DF80000D2
:101EF000FFF7D5FD80211220FFF7D0FE002806D184
:101F00003E493F484DF61512904700204DE03D48B0
:101F1000016832204DF6C52290470B220121684608
:101F2000FFF7F5FE002806D1374935484DF6151262
:101F30009047002039E04DF61515314E9DF80020F0
:101F400032493000A847324F3A7832493000A8472A
:101F50009DF80000212827D15FF00008404639781D
:101F600080B289B288421AD22B4C404680B204EB30
:101F700040004178404680B214F8100080B2FFF76C
:101F80008DFE002808D1404680B214F81020234965
:101F90003000A847002008E018F10108DEE72049DA
:101FA0003000A847012000E00020BDE8F68138B5E8
:101FB000104908680028FBD00D685FF0FF3008600A
:101FC0001D242800E040C00701D5FFF747FF31BDC1
:101FD00000E100E080E100E080AFFF1F50F00F4023
:101FE0000C80004024800040020102001201090020
:101FF000D104FF1FA0900440109000400829010068
:10200000C915010074AFFF1F382901002C280100F9
:10201000D204FF1FA82801006C04FF1F2029010023
:102020005028010080B5FFF739FF01BD2DE9F843C5
:1020300004000D002000800910F00700C0B2460126
:102040002000103810F03F00C0B2C70017EB0608A0
:10205000EDB218EBC500B0F1010948464146C0B2E7
:10206000C9B288420ED3002200214046C0B2FFF719
:102070008DFC4FF481714046C0B2FFF7D5FA18F1DC
:102080000108EAE7BDE8F1832DE9F84F04000D00EF
:1020900016001F009DF92880DDF82C90DDF830A097
:1020A000404640B2002802D15FF0010B0FE04046ED
:1020B00040B2012802D15FF0020B08E0404640B276
:1020C000022802D15FF0040B01E05FF0100B4046E4
:1020D00040B2002805D15A48854202D35948A84247
:1020E0001FD2404640B2012809D15548854206D347
:1020F0005548A84203D315F00300032811D14046E8
:1021000040B2022809D14E48854206D34F48A84222
:1021100003D315F00300002803D061214C48FFF7DA
:102120003DFAB9F5004F03D363214948FFF736FA6A
:102130004848016851F0020101604748016851F0C8
:10214000020101604548210049B249014550210082
:1021500049B2490101440E610021220052B25201EC
:10216000024491805946C9B2220052B2520102443F
:102170009182414649B2090211F4E061424652B2ED
:1021800012F007021143220052B252010244D180E0
:1021900049464904490C220052B252010244D182FC
:1021A00049464904490C220052B252010244D183EB
:1021B0002B490A6832F080020A605946C9B22200EF
:1021C00052B25201024491600021220052B25201E7
:1021D0000244D1605FEACA7102D4D9F1000100E083
:1021E0000021220052B25201024491614CF20A01D4
:1021F000220052B25201104481833800C0B240091B
:10220000313050F080001749220052B288541649EC
:1022100001220B6812FA04F083430B601348016833
:10222000A2400A43026012493800C0B2FFF7FCF92D
:102230005946C9B22800FFF7F9FEBDE8F18F00004A
:1022400010F00F4013F10F4012F10F4010F10F404A
:10225000F4260100408004403C800440009000408F
:1022600000800040001002400C80004024800040AC
:102270000001010080B53848016851F47001016027
:1022800000F088F800F025F800F003F800F0A0F85E
:10229000FEE738B5314C1C231922642109204DF288
:1022A0007F05A84720602E4922684FF47A70424388
:1022B0000A6008682B490968C1F30361491CB0FB37
:1022C000F1F0294908605FF4E1310020FFF748FA96
:1022D00031BD2DE9F0412549254888420AD0002228
:1022E0001400B4F5826F05D251F8242040F8242060
:1022F000641CF6E700F0AEF81E4B1F4A1F498E1A09
:102300003000461E002804D010781870521C5B1C48
:10231000F6E71B4D1B4C671B3800471E002803D0F7
:10232000002028706D1CF7E7DFF85CC0DFF85CE088
:10233000DFF85C80B8EB0E063000461E002808D09F
:102340009EF800008CF800001EF1010E1CF1010C3B
:10235000F2E7BDE8F081000088ED00E078AFFF1FF4
:1023600074AFFF1F448004407CAFFF1F00000100DA
:102370000000FF1F1004FF1FF4250100B826010014
:10238000D404FF1F98AFFF1F98AFFF1F64290100FF
:102390006429010080B500F007F80B490A884FF660
:1023A000FE7002400A8001BDEFF3118072B607494A
:1023B0004CF220520A804DF628120A800100C9B260
:1023C000002900D162B67047002005400E2005406C
:1023D00070B50320FFF784F9184C2078012802D14A
:1023E0001748FFF707FD174D2878012803D1FEF79E
:1023F00075FCFEF79CFCFFF747F8FFF791F81249D0
:102400004B2000F038F81149102000F034F8207803
:1024100001280CD10E4E3078012803D100F042F88B
:10242000FFF745FD3078022801D1FFF740FD2878FD
:102430000128ECD1FEF760FCE9E700BF97AFFF1F72
:10244000B406FF1FD004FF1FAF1F010025200100AD
:10245000D104FF1F10B504004FF4007094FBF0F19D
:1024600000FB1140002803D01E210B48FFF796F80F
:102470000A48046010BD70B504000D00084E0748FE
:102480000068B04203D030210348FFF787F82000EE
:1024900040B246F8205070BDA827010008ED00E0CA
:1024A0000000FF1F10B500F013F8FDF7B5FFFEF7B1
:1024B000FBFFFFF745F8144C4FF42F52210013484F
:1024C00000F026F84FF4AF61200000F073F810BD63
:1024D00010B500200024462C14DAA0201422032179
:1024E00001FB04F11C314143082391FBF3F1064B3E
:1024F0001944064B00FB04F0184449F61D63984745
:10250000641CE8E710BD0000B406FF1F7419FF1F2C
:1025100010B4002A4BD000230B700B78047814F011
:102520008004E3180B70401C0B780478E4B2640854
:1025300014F04004E3180B70401C0B780478E4B2EC
:10254000A40814F02004E3180B70401C0B780478E6
:10255000E4B2E40814F01004E3180B70401C0B788C
:102560000478E4B2240914F00804E3180B70401C4A
:102570000B780478E4B2640914F00404E3180B70D7
:10258000401C0B780478E4B2A40914F00204E318A8
:102590000B70401C0B780478E4B213EBD4130B706F
:1025A000401C0B78DB430B70491C083AB1E710BCA8
:1025B0007047000038B504000D000C480088ADF8E5
:1025C00002000B480088ADF8000002220DF1020164
:1025D0000020FFF7BBF92A0021000020FFF7B6F921
:1025E000022269460020FFF7B1F931BDDA0C010083
:1025F000C61D01000A0000000A0000000A000000D9
:102600000A0000000000424200B0034000B00B404E
:1026100000F00F4040F00F4080F00F40C0F00F403E
:1026200000F10F400090044000A0044000B00440BE
:1026300000C0044000D0044000A0064000B00640A6
:1026400000C0064000D0064000A00E4034353637AA
:102650000D41110009030CD01240173F1850190307
:102660001A783200A00A63E0ACFF650C66006700D0
:1026700029282C782A007E0C7F16802A814E8261C0
:10268000836F847B8586868E879788A489AF8AC569
:102690008BD78CE88D204A00491347084B144C1700
:1026A000460522992303A6049B009C50AB069E116D
:1026B0009F02000001013100433A5C55736572735B
:1026C0005C33363536345C4465736B746F705CE52F
:1026D0008187E8A385E5BE88E58AAAE58A9B5C43F5
:1026E0006869705C7372635C4D4B36365F6164631E
:1026F0002E630000433A5C55736572735C33363564
:1027000036345C4465736B746F705CE58187E8A355
:1027100085E5BE88E58AAAE58A9B5C436869705CAA
:102720007372635C4D4B36365F646D612E630000DF
:10273000433A5C55736572735C33363536345C44AA
:1027400065736B746F705CE58187E8A385E5BE886F
:10275000E58AAAE58A9B5C436869705C7372635C76
:102760004D4B36365F6770696F2E6300433A5C5598
:10277000736572735C33363536345C4465736B74E1
:102780006F705CE58187E8A385E5BE88E58AAAE5E8
:102790008A9B5C436869705C7372635C4D4B363630
:1027A0005F756172742E6300433A5C557365727392
:1027B0005C33363536345C4465736B746F705CE53E
:1027C0008187E8A385E5BE88E58AAAE58A9B5C4304
:1027D0006869705C7372635C6D6973632E6300007B
:1027E00010B5074979441831064C7C44163404E08E
:1027F0000A68081D114488470146A142F8D110BD5E
:1028000098000000A4000000417373657274696F42
:102810006E206661696C656420696E202573206195
:1028200074206C696E652025640A00000A4765748F
:102830002049442073756363657373A3AC53454E9D
:10284000534F522049442069732030782578000086
:102850000A4F56373732352052656769737465728F
:1028600020436F6E666967205375636365737321D8
:10287000000000004EF68851CEF20001086840F4D6
:1028800070000860BFF34F8FBFF36F8F4FF0007081
:10289000E1EE100A7047000027E2FFFFC4AA000023
:1028A000D404FF1F000000000A436F6E66696720B2
:1028B0005265676973746572204E756D626572202A
:1028C000697320256420000000F00DF8002801D075
:1028D000FFF786FFAFF300800020AFF30080FFF723
:1028E00077FD00F002F80120704700F001B8000009
:1028F0000746384600F002F8FBE7000020210903F4
:1029000026311820ABBEF9E70ABEAFB8E63A53430A
:102910004342D0B4CAFDBEDDB4EDCEF300000000EA
:102920000ABEAFB8E63AD0B4BCC4B4E6C6F7307855
:102930002578CAA7B0DC00000ABEAFB8E63AB6C137
:10294000C8A14944CAA7B0DC000000000A7665634C
:10295000746F723D25640A00AFF30080FFF78AFFB1
:04296000FFF7B2FFCC
:040000050001295974
:00000001FF
